:100000000C9434000C9446000C9446000C9446006A
:100010000C9446000C9446000C9446000C94460048
:100020000C9446000C9446000C9446000C94460038
:100030000C9446000C9446000C9446000C94460028
:100040000C9446000C9446000C9446000C94460018
:100050000C9446000C9446000C9446000C94460008
:100060000C9446000C94460011241FBECFEFD8E03C
:10007000DEBFCDBF11E0A0E0B1E001C01D92AE3FF8
:10008000B107E1F70E9448000C945D000C94000059
:10009000E0E0F1E080E090E081939193809681151B
:1000A00020E19207C9F78FEF94E32CE08150904054
:0E00B0002040E1F700C00000F6CFF894FFCF2B
:00000001FF
